:0C014D000A08C0F9A4B0999282F88090D2
:10000300E4F512D281D282C280751214E51275F022
:100013000A84740825F0F8E6F5B0E51275F00A8451
:100023002408F8E6F5A07FE87E0312012D1512E5FA
:1000330012D3940050D6C281D282D280751214E5B5
:100043001275F00A84740825F0F8E6F5B0E5127528
:10005300F00A842408F8E6F5A07FE87E0312012D58
:100063001512E512D3940050D6D281C282D2807584
:100073001214E512D39400408AE51275F00A8474D1
:100083000825F0F8E6F5B0E51275F00A842408F8BF
:0E009300E6F5A07FE87E0312012D151280D441
:10012D00E4FDFCD3ED9FEC9E5015E4FBFA0BBB00F8
:0F013D00010AEB647C4A70F50DBD00010C80E4F3
:01014C002290
:030000000200A15A
:0C00A100787FE4F6D8FD7581120200E8BB
:1000AD00020003E493A3F8E493A34003F68001F266
:1000BD0008DFF48029E493A3F85407240CC8C33354
:1000CD00C4540F4420C8834004F456800146F6DF23
:1000DD00E4800B010204081020408090014DE47E65
:1000ED00019360BCA3FF543F30E509541FFEE49318
:1000FD00A360010ECF54C025E060A840B8E493A3DF
:10010D00FAE493A3F8E493A3C8C582C8CAC583CA09
:10011D00F0A3C8C582C8CAC583CADFE9DEE780BEC1
:0101590000A5
:00000001FF
