:0C010A000A08C0F9A4B0999282F8809015
:10008F00E4F512E51275F00A84F513E51275F00A1E
:10009F008485F014E4F515F51674082514F8E6F5C3
:1000AF00B0C2A17F017E001200EAD2A1740825130D
:1000BF00F8E6F5B0C2A07F017E001200EAD2A005DB
:1000CF0016E51670020515C394F4E515940140C9A1
:0B00DF000512E512C3946440AA80A53E
:1000EA00E4FDFCC3ED9FEC9E5015E4FBFA0BBB004C
:0F00FA00010AEB647B4A70F50DBD00010C80E438
:0101090022D3
:03000000020003F8
:0C000300787FE4F6D8FD75811602004AF3
:10000F0002008FE493A3F8E493A34003F68001F278
:10001F0008DFF48029E493A3F85407240CC8C333F2
:10002F00C4540F4420C8834004F456800146F6DFC1
:10003F00E4800B010204081020408090010AE47E46
:10004F00019360BCA3FF543F30E509541FFEE493B6
:10005F00A360010ECF54C025E060A840B8E493A37D
:10006F00FAE493A3F8E493A3C8C582C8CAC583CAA8
:10007F00F0A3C8C582C8CAC583CADFE9DEE780BE60
:0101160000E8
:00000001FF
