:1008A9007580AA7FF47E011208896380FF7FF47E38
:0408B90001020889A7
:1008BD007590AA7FF47E011208896390FF7FF47E04
:0408CD000102088993
:1008D10075A0AA7FF47E0112088963A0FF7FF47ED0
:0408E100010208897F
:1008E50075B0AA7FF47E0112088963B0FF7FF47E9C
:0408F500010208896B
:10086000758080E4F50CF50DE580C313F5807F2CD1
:100870007E01120889050DE50D7002050CC3940870
:08088000E50C6480948040E067
:01088800224D
:100800007580017F2C7E01120889E4F50AF50BE55D
:100810008025E0F5807F2C7E01120889050BE50B11
:0F0820007002050AC39408E50A6480948040E0E2
:01082F0022A6
:100830007590017F2C7E01120889E4F50AF50BE51D
:100840009025E0F5907F2C7E01120889050BE50BC1
:0F0850007002050AC39408E50A6480948040E0B2
:01085F002276
:0B0905001208001208301208A980F54B
:10088900E4FDFCD3ED9FEC9E5015E4FBFA0BBB0095
:0F089900010AEB647C4A70F50DBD00010C80E490
:0108A800222D
:030000000208F9FA
:0C08F900787FE4F6D8FD75810D0209053A
:00000001FF
